:100000000C942A000C943F000C943F000C943F0089
:100010000C943F000C943F000C943F000C943F0064
:100020000C943F000C943F000C943F000C943F0054
:100030000C943F000C943F000C943F000C943F0044
:100040000C943F000C943F000C943F000C943F0034
:100050000C943F0011241FBECFE5D8E0DEBFCDBF1A
:1000600010E0A0E6B0E0E6E6F0E102C005900D92F7
:10007000A837B107D9F70E94D0010C9431080C942D
:100080000000CF93DF9300D0CDB7DEB789836A83BA
:100090008A81882F90E0009789F1019709F05DC06F
:1000A0008981869586958695882F90E0880F991F7F
:1000B000805A9F4FFC018081918129812695269548
:1000C0002695222F30E0220F331F205A3F4FF9018F
:1000D00020813181F9012081622F2981222F30E096
:1000E000A9014770552721E030E002C0220F331FDD
:1000F0004A95E2F7262BFC0120832FC08981869543
:1001000086958695882F90E0880F991F805A9F4F7B
:10011000FC01808191812981269526952695222FA3
:1001200030E0220F331F205A3F4FF90120813181E7
:10013000F9012081622F2981222F30E0A901477027
:10014000552721E030E002C0220F331F4A95E2F725
:1001500020952623FC012083000000000F900F90C3
:10016000DF91CF910895CF93DF9300D0CDB7DEB765
:1001700089836A838A81882F90E08130910539F0E4
:100180008230910509F460C0892B79F18BC0898197
:10019000869586958695882F90E0880F991F8859B7
:1001A0009F4FFC0180819181298126952695269576
:1001B000222F30E0220F331F28593F4FF9012081B1
:1001C0003181F9012081622F2981222F30E0A9019C
:1001D0004770552721E030E002C0220F331F4A95B7
:1001E000E2F7262BFC0120835DC0898186958695E8
:1001F0008695882F90E0880F991F88599F4FFC01A2
:10020000808191812981269526952695222F30E09F
:10021000220F331F28593F4FF90120813181F90105
:100220002081622F2981222F30E0A90147705527B4
:1002300021E030E002C0220F331F4A95E2F72095FB
:100240002623FC0120832EC089818695869586957C
:10025000882F90E0880F991F88599F4FFC0180815B
:1002600091812981269526952695222F30E0220F0F
:10027000331F28593F4FF90120813181F901208135
:10028000622F2981222F30E0A9014770552721E0F4
:1002900030E002C0220F331F4A95E2F72627FC0107
:1002A0002083000000000F900F90DF91CF91089500
:1002B000CF93DF9300D0CDB7DEB78A8319828A81CE
:1002C000869586958695882F90E0880F991F80598E
:1002D0009F4FFC0180819181FC018081882F90E0FB
:1002E0002A81222F30E02770332702C09595879509
:1002F0002A95E2F78170898389810F900F90DF91B1
:10030000CF910895CF93DF9300D0CDB7DEB7898327
:100310006A838981882F90E0880F991F805A9F4FA8
:10032000FC01808191812A81FC01208300000F90D3
:100330000F90DF91CF910895CF93DF9300D0CDB789
:10034000DEB789836A838981882F90E0880F991F9F
:1003500088599F4FFC01808191812A81FC01208373
:1003600000000F900F90DF91CF910895CF93DF930E
:1003700000D0CDB7DEB78A8319828A81882F90E0BA
:10038000880F991F80599F4FFC0180819181FC014A
:100390008081898389810F900F90DF91CF9108959B
:1003A000CF93DF93CDB7DEB70E94D9010E94F10150
:1003B000FDCFCF93DF93CDB7DEB761E080E10E9440
:1003C000410061E081E10E94410061E082E10E9420
:1003D000410061E083E10E9441000000DF91CF9184
:1003E00008950F931F93CF93DF93CDB7DEB7C05718
:1003F000D1090FB6F894DEBF0FBECDBF61E080E13A
:100400000E94B30080E090E0A0E2B2E489839A8386
:10041000AB83BC838E0109591F4F20E030E04AE7CF
:1004200055E469817A818B819C810E949C07DC0163
:10043000CB01F80180839183A283B383CE018959D4
:100440009F4F20E030E040E85FE3FC016081718174
:10045000828193810E94160788234CF4CE0185592E
:100460009F4F21E030E0FC013183208369C0CE0141
:1004700089599F4F20E03FEF4FE757E4FC0160812F
:100480007181828193810E94970718160CF046C0F3
:1004900020E030E040E251E469817A818B819C81E7
:1004A0000E949C07DC01CB018E0105591F4FBC0146
:1004B000CD010E941B07DC01CB01F80191838083F1
:1004C00024C0CE0183599F4F20E931E0FC013183E4
:1004D0002083CE0183599F4FFC0180819181019738
:1004E000F1F79E0123593F4FF90191838083CE019B
:1004F00085599F4F9E0125593F4FF9012081318138
:1005000021503109FC0131832083CE0185599F4F51
:10051000FC0180819181892BA1F62CC08E010559A7
:100520001F4FCE0189599F4FFC01608171818281EB
:1005300093810E941B07DC01CB01F801918380832A
:10054000CE0181599F4F9E0125593F4FF9012081CE
:100550003181FC0131832083CE0181599F4FFC0101
:10056000808191810197F1F79E0121593F4FF90157
:100570009183808360E080E10E94B30080E090E09E
:10058000A0E2B2E48D839E83AF83B8878E01035AC5
:100590001F4F20E030E04AE755E46D817E818F8176
:1005A00098850E949C07DC01CB01F8018083918330
:1005B000A283B383CE01835A9F4F20E030E040E80E
:1005C0005FE3FC0160817181828193810E94160743
:1005D00088234CF4CE018F599F4F21E030E0FC017D
:1005E0003183208369C0CE01835A9F4F20E03FEFC3
:1005F0004FE757E4FC0160817181828193810E9401
:10060000970718160CF046C020E030E040E251E4B5
:100610006D817E818F8198850E949C07DC01CB01D2
:100620008E010F591F4FBC01CD010E941B07DC0139
:10063000CB01F8019183808324C0CE018D599F4F57
:1006400020E931E0FC0131832083CE018D599F4F99
:10065000FC01808191810197F1F79E012D593F4F57
:10066000F90191838083CE018F599F4F9E012F59AD
:100670003F4FF9012081318121503109FC01318343
:100680002083CE018F599F4FFC0180819181892B5E
:10069000A1F62CC08E010F591F4FCE01835A9F4FD8
:1006A000FC0160817181828193810E941B07DC01C2
:1006B000CB01F80191838083CE018B599F4F9E011E
:1006C0002F593F4FF90120813181FC013183208373
:1006D000CE018B599F4FFC01808191810197F1F7E9
:1006E0009E012B593F4FF9019183808361E081E1A5
:1006F0000E94B30080E090E0A0E2B2E489879A878C
:10070000AB87BC878E010D5A1F4F20E030E04AE7CF
:1007100055E469857A858B859C850E949C07DC0160
:10072000CB01F80180839183A283B383CE018D5ADC
:100730009F4F20E030E040E85FE3FC016081718181
:10074000828193810E94160788234CF4CE01895A36
:100750009F4F21E030E0FC013183208369C0CE014E
:100760008D5A9F4F20E03FEF4FE757E4FC01608137
:100770007181828193810E94970718160CF046C000
:1007800020E030E040E251E469857A858B859C85E4
:100790000E949C07DC01CB018E01095A1F4FBC014E
:1007A000CD010E941B07DC01CB01F80191838083FE
:1007B00024C0CE01875A9F4F20E931E0FC013183EC
:1007C0002083CE01875A9F4FFC0180819181019740
:1007D000F1F79E01275A3F4FF90191838083CE01A3
:1007E000895A9F4F9E01295A3F4FF901208131813B
:1007F00021503109FC0131832083CE01895A9F4F5A
:10080000FC0180819181892BA1F62CC08E01095AAF
:100810001F4FCE018D5A9F4FFC01608171818281F3
:1008200093810E941B07DC01CB01F8019183808337
:10083000CE01855A9F4F9E01295A3F4FF9012081D1
:100840003181FC0131832083CE01855A9F4FFC0109
:10085000808191810197F1F79E01255A3F4FF9015F
:100860009183808360E081E10E94B30080E090E0AA
:10087000A0E2B2E48D879E87AF87B88B8E01075BBD
:100880001F4F20E030E04AE755E46D857E858F8577
:1008900098890E949C07DC01CB01F8018083918339
:1008A000A283B383CE01875B9F4F20E030E040E816
:1008B0005FE3FC0160817181828193810E94160750
:1008C00088234CF4CE01835B9F4F21E030E0FC0194
:1008D0003183208369C0CE01875B9F4F20E03FEFCB
:1008E0004FE757E4FC0160817181828193810E940E
:1008F000970718160CF046C020E030E040E251E4C3
:100900006D857E858F8598890E949C07DC01CB01CF
:100910008E01035B1F4FBC01CD010E941B07DC0150
:10092000CB01F8019183808324C0CE01815B9F4F6E
:1009300020E931E0FC0131832083CE01815B9F4FB0
:10094000FC01808191810197F1F79E01215B3F4F6E
:10095000F90191838083CE01835B9F4F9E01235BCE
:100960003F4FF9012081318121503109FC01318350
:100970002083CE01835B9F4FFC0180819181892B75
:10098000A1F62CC08E01035B1F4FCE01875B9F4FEA
:10099000FC0160817181828193810E941B07DC01CF
:1009A000CB01F80191838083CE018F5A9F4F9E0126
:1009B000235B3F4FF90120813181FC01318320838A
:1009C000CE018F5A9F4FFC01808191810197F1F7F1
:1009D0009E012F5A3F4FF9019183808361E082E1AC
:1009E0000E94B30080E090E0A0E2B2E4898B9A8B91
:1009F000AB8BBC8B8E01015C1F4F20E030E04AE7DF
:100A000055E469897A898B899C890E949C07DC015D
:100A1000CB01F80180839183A283B383CE01CF966B
:100A200020E030E040E85FE3FC0160817181828179
:100A300093810E94160788234CF4CE018D5B9F4F53
:100A400021E030E0FC013183208367C0CE01CF96E6
:100A500020E03FEF4FE757E4FC0160817181828124
:100A600093810E94970718160CF046C020E030E0F2
:100A700040E251E469897A898B899C890E949C07AC
:100A8000DC01CB018E010D5B1F4FBC01CD010E942B
:100A90001B07DC01CB01F8019183808324C0CE01C8
:100AA0008B5B9F4F20E931E0FC0131832083CE0135
:100AB0008B5B9F4FFC01808191810197F1F79E0133
:100AC0002B5B3F4FF90191838083CE018D5B9F4F5C
:100AD0009E012D5B3F4FF901208131812150310969
:100AE000FC0131832083CE018D5B9F4FFC0180810F
:100AF0009181892BA1F62BC08E010D5B1F4FCE017A
:100B0000CF96FC0160817181828193810E941B07D5
:100B1000DC01CB01F80191838083CE01895B9F4F7B
:100B20009E012D5B3F4FF90120813181FC01318312
:100B30002083CE01895B9F4FFC01808191810197C9
:100B4000F1F79E01295B3F4FF9019183808360E0BB
:100B500082E10E94B30080E090E0A0E2B2E48D8BDD
:100B60009E8BAF8BB88F20E030E04AE755E46D896B
:100B70007E898F89988D0E949C07DC01CB018DAB0B
:100B80009EABAFABB8AF20E030E040E85FE36DA9CB
:100B90007EA98FA998AD0E94160788232CF481E0C6
:100BA00090E09AAF89AF3FC020E03FEF4FE757E4B6
:100BB0006DA97EA98FA998AD0E94970718164CF5CC
:100BC00020E030E040E251E46D897E898F89988D84
:100BD0000E949C07DC01CB01BC01CD010E941B07D8
:100BE000DC01CB019AAF89AF0FC080E991E09CAFE7
:100BF0008BAF8BAD9CAD0197F1F79CAF8BAF89ADFF
:100C00009AAD01979AAF89AF89AD9AAD892B69F7F3
:100C100014C06DA97EA98FA998AD0E941B07DC01A5
:100C2000CB019AAF89AF89AD9AAD9EAF8DAF8DAD37
:100C30009EAD0197F1F79EAF8DAF61E083E10E9419
:100C4000B30080E090E0A0E2B2E4898F9A8FAB8F8E
:100C5000BC8F20E030E04AE755E4698D7A8D8B8DBA
:100C60009C8D0E949C07DC01CB018BA79CA7ADA7A4
:100C7000BEA720E030E040E85FE36BA57CA58DA532
:100C80009EA50E94160788232CF481E090E098AB83
:100C90008FA73FC020E03FEF4FE757E46BA57CA54F
:100CA0008DA59EA50E94970718164CF520E030E010
:100CB00040E251E4698D7A8D8B8D9C8D0E949C075A
:100CC000DC01CB01BC01CD010E941B07DC01CB0183
:100CD00098AB8FA70FC080E991E09AAB89AB89A947
:100CE0009AA90197F1F79AAB89AB8FA598A90197BB
:100CF00098AB8FA78FA598A9892B69F714C06BA50E
:100D00007CA58DA59EA50E941B07DC01CB0198AB9D
:100D10008FA78FA598A99CAB8BAB8BA99CA901979A
:100D2000F1F79CAB8BAB60E083E10E94B30080E005
:100D300090E0A0E2B2E48D8F9E8FAF8FB8A320E049
:100D400030E04AE755E46D8D7E8D8F8D98A10E942D
:100D50009C07DC01CB0189A39AA3ABA3BCA320E031
:100D600030E040E85FE369A17AA18BA19CA10E94D9
:100D7000160788232CF481E090E09EA38DA33FC04A
:100D800020E03FEF4FE757E469A17AA18BA19CA136
:100D90000E94970718164CF520E030E040E251E43D
:100DA0006D8D7E8D8F8D98A10E949C07DC01CB01FB
:100DB000BC01CD010E941B07DC01CB019EA38DA3CA
:100DC0000FC080E991E098A78FA38FA198A5019704
:100DD000F1F798A78FA38DA19EA101979EA38DA344
:100DE0008DA19EA1892B69F714C069A17AA18BA15D
:100DF0009CA10E941B07DC01CB019EA38DA38DA1AA
:100E00009EA19AA789A789A59AA50197F1F79AA704
:100E100089A70000C059DF4F0FB6F894DEBF0FBEA0
:100E2000CDBFDF91CF911F910F9108950E944A0786
:100E300008F481E008950E94760788F09F5798F0A3
:100E4000B92F9927B751B0F0E1F0660F771F881FCF
:100E5000991F1AF0BA95C9F714C0B13091F00E94E9
:100E60009007B1E008950C949007672F782F88279A
:100E7000B85F39F0B93FCCF3869577956795B39510
:100E8000D9F73EF490958095709561957F4F8F4F7F
:100E90009F4F0895990F0008550FAA0BE0E8FEEF49
:100EA00016161706E807F907C0F012161306E4072E
:100EB000F50798F0621B730B840B950B39F40A2627
:100EC00061F0232B242B252B21F408950A2609F405
:100ED000A140A6958FEF811D811D089557FD905863
:100EE000440F551F59F05F3F71F04795880F97FBEE
:100EF000991F61F09F3F79F08795089512161306A8
:100F00001406551FF2CF4695F1DF08C016161706D6
:100F10001806991FF1CF869571056105089408950B
:100F2000E894BB2766277727CB0197F908950E949D
:100F30004A0708F48FEF08950E94AF070C94200829
:100F40000E94120838F00E94190820F0952311F031
:100F50000C9409080C940F0811240C9491070E941A
:100F60006E0770F3959FC1F3950F50E0551F629F78
:100F7000F001729FBB27F00DB11D639FAA27F00DF2
:100F8000B11DAA1F649F6627B00DA11D661F829F19
:100F90002227B00DA11D621F739FB00DA11D621FFE
:100FA000839FA00D611D221F749F3327A00D611D1B
:100FB000231F849F600D211D822F762F6A2F1124FD
:100FC0009F5750409AF0F1F088234AF0EE0FFF1F30
:100FD000BB1F661F771F881F91505040A9F79E3F87
:100FE000510580F00C9409080C9491075F3FE4F3DD
:100FF000983ED4F3869577956795B795F795E795DD
:101000009F5FC1F7FE2B880F911D9695879597F9E5
:10101000089597F99F6780E870E060E008959FEF7A
:1010200080EC089500240A9416161706180609067F
:10103000089500240A94121613061406050608954E
:10104000092E0394000C11F4882352F0BB0F40F4D6
:10105000BF2B11F460FF04C06F5F7F4F8F4F9F4F16
:061060000895F894FFCF93
:101066003A003700340031003B00380035003200CA
:081076003900360033003000A0
:00000001FF
