:100000000C9448000C9431080C94E6070C9465009D
:100010000C9465000C9465000C9465000C946500CC
:100020000C9465000C9465000C9465000C946500BC
:100030000C9465000C9465000C9465000C946500AC
:100040000C9465000C9465000C9465000C9465009C
:100050000C946500710282029302A402B502C602EA
:10006000D702E802F9020A034E036B038803A503D3
:10007000C203DF03FC03190436045304B806D50693
:10008000F2060F072C07490766078307A007BD077D
:1000900011241FBECFE5D8E0DEBFCDBF10E0A0E643
:1000A000B0E0E6EFF1E102C005900D92AA38B10789
:1000B000D9F720E0AAE8B0E001C01D92AB38B20742
:1000C000E1F70E94DA080C94F9080C940000CF9331
:1000D000DF9300D0CDB7DEB789836A838A81882F0A
:1000E00090E0009789F1019709F05DC089818695BC
:1000F00086958695882F90E0880F991F805A9F4F8C
:10010000FC01808191812981269526952695222FB3
:1001100030E0220F331F205A3F4FF90120813181F7
:10012000F9012081622F2981222F30E0A901477037
:10013000552721E030E002C0220F331F4A95E2F735
:10014000262BFC0120832FC0898186958695869574
:10015000882F90E0880F991F805A9F4FFC01808163
:1001600091812981269526952695222F30E0220F10
:10017000331F205A3F4FF90120813181F90120813D
:10018000622F2981222F30E0A9014770552721E0F5
:1001900030E002C0220F331F4A95E2F72095262354
:1001A000FC012083000000000F900F90DF91CF91A1
:1001B0000895CF93DF9300D0CDB7DEB789836A83EC
:1001C0008A81882F90E08130910539F08230910545
:1001D00009F460C0892B79F18BC089818695869559
:1001E0008695882F90E0880F991F88599F4FFC01B2
:1001F000808191812981269526952695222F30E0B0
:10020000220F331F28593F4FF90120813181F90115
:100210002081622F2981222F30E0A90147705527C4
:1002200021E030E002C0220F331F4A95E2F7262B6F
:10023000FC0120835DC08981869586958695882FEF
:1002400090E0880F991F88599F4FFC018081918110
:100250002981269526952695222F30E0220F331FDF
:1002600028593F4FF90120813181F9012081622F06
:100270002981222F30E0A9014770552721E030E085
:1002800002C0220F331F4A95E2F720952623FC0176
:1002900020832EC08981869586958695882F90E04B
:1002A000880F991F88599F4FFC0180819181298176
:1002B000269526952695222F30E0220F331F2859A8
:1002C0003F4FF90120813181F9012081622F29817D
:1002D000222F30E0A9014770552721E030E002C00D
:1002E000220F331F4A95E2F72627FC0120830000E6
:1002F00000000F900F90DF91CF910895CF93DF937F
:1003000000D0CDB7DEB78A8319828A81869586951B
:100310008695882F90E0880F991F80599F4FFC0188
:1003200080819181FC018081882F90E02A81222F99
:1003300030E02770332702C0959587952A95E2F71C
:100340008170898389810F900F90DF91CF910895FB
:10035000CF93DF9300D0CDB7DEB789836A838981DD
:10036000882F90E0880F991F805A9F4FFC01808151
:1003700091812A81FC01208300000F900F90DF9172
:10038000CF910895CF93DF9300D0CDB7DEB78983A7
:100390006A838981882F90E0880F991F88599F4F21
:1003A000FC01808191812A81FC01208300000F9053
:1003B0000F90DF91CF910895CF93DF9300D0CDB709
:1003C000DEB78A8319828A81882F90E0880F991F6F
:1003D00080599F4FFC0180819181FC01808189833C
:1003E00089810F900F90DF91CF910895CF93DF9384
:1003F00000D000D0CDB7DEB769837A838B839C832E
:10040000898161E00E9467008A8161E00E94670043
:100410008B8161E00E9467008C8161E00E9467002F
:1004200000000F900F900F900F90DF91CF910895E3
:10043000CF93DF93CDB7DEB727970FB6F894DEBF23
:100440000FBECDBF29833A834B835C836D837E834C
:100450008F83898161E00E9467008A8161E00E9448
:1004600067008B8161E00E9467008C8161E00E94DF
:1004700067008D8161E00E9467008E8161E00E94CB
:1004800067008F8161E00E946700000027960FB629
:10049000F894DEBF0FBECDBFDF91CF910895CF930B
:1004A000DF9300D000D01F92CDB7DEB769837A8387
:1004B0008B839C834D838D81882F90E0092E000CC7
:1004C000AA0BBB0B40E050E029E030E0841B950B09
:1004D0002817390708F4AFC0865D9F4FFC010C94C4
:1004E000F308898160E00E94D9008A8160E00E945F
:1004F000D9008B8160E00E94D9008C8160E00E946D
:10050000D9009AC0898161E00E94D9008A8160E0A7
:100510000E94D9008B8160E00E94D9008C8160E04C
:100520000E94D90089C0898160E00E94D9008A8137
:1005300061E00E94D9008B8160E00E94D9008C812B
:1005400060E00E94D90078C0898161E00E94D900F2
:100550008A8161E00E94D9008B8160E00E94D9000D
:100560008C8160E00E94D90067C0898160E00E94B0
:10057000D9008A8160E00E94D9008B8161E00E94ED
:10058000D9008C8160E00E94D90056C0898161E069
:100590000E94D9008A8160E00E94D9008B8161E0CD
:1005A0000E94D9008C8160E00E94D90045C08981F9
:1005B00060E00E94D9008A8161E00E94D9008B81AD
:1005C00061E00E94D9008C8160E00E94D90034C0B3
:1005D000898161E00E94D9008A8161E00E94D9008E
:1005E0008B8161E00E94D9008C8160E00E94D9007B
:1005F00023C0898160E00E94D9008A8160E00E9466
:10060000D9008B8160E00E94D9008C8161E00E945A
:10061000D90012C0898161E00E94D9008A8160E01E
:100620000E94D9008B8160E00E94D9008C8161E03A
:100630000E94D90001C0000000000F900F900F90A1
:100640000F900F90DF91CF9108950F93CF93DF9389
:10065000CDB7DEB728970FB6F894DEBF0FBECDBF7B
:1006600029833A834B835C836D837E838F830887E2
:100670008885882F90E0092E000CAA0BBB0B40E068
:1006800050E029E030E0841B950B2817390708F467
:1006900027C18C5C9F4FFC010C94F308898160E0BA
:1006A0000E94D9008A8160E00E94D9008B8160E0BD
:1006B0000E94D9008C8160E00E94D9008D8160E0A9
:1006C0000E94D9008E8160E00E94D9008F8161E094
:1006D0000E94D90006C1898161E00E94D9008A8107
:1006E00060E00E94D9008B8160E00E94D9008C817B
:1006F00061E00E94D9008D8161E00E94D9008E8165
:1007000061E00E94D9008F8161E00E94D900E9C0B8
:10071000898160E00E94D9008A8160E00E94D9004E
:100720008B8161E00E94D9008C8160E00E94D90039
:100730008D8160E00E94D9008E8161E00E94D90025
:100740008F8160E00E94D900CCC0898160E00E9466
:10075000D9008A8160E00E94D9008B8160E00E940C
:10076000D9008C8160E00E94D9008D8161E00E94F7
:10077000D9008E8161E00E94D9008F8160E00E94E3
:10078000D900AFC0898161E00E94D9008A8160E010
:100790000E94D9008B8160E00E94D9008C8161E0C9
:1007A0000E94D9008D8161E00E94D9008E8160E0B5
:1007B0000E94D9008F8160E00E94D90092C0898197
:1007C00060E00E94D9008A8161E00E94D9008B819B
:1007D00060E00E94D9008C8160E00E94D9008D8188
:1007E00061E00E94D9008E8160E00E94D9008F8173
:1007F00060E00E94D90075C0898160E00E94D90044
:100800008A8161E00E94D9008B8160E00E94D9005A
:100810008C8160E00E94D9008D8160E00E94D90047
:100820008E8160E00E94D9008F8160E00E94D90033
:1008300058C0898160E00E94D9008A8160E00E94EE
:10084000D9008B8160E00E94D9008C8161E00E9418
:10085000D9008D8161E00E94D9008E8161E00E9403
:10086000D9008F8161E00E94D9003BC0898160E09E
:100870000E94D9008A8160E00E94D9008B8160E0EB
:100880000E94D9008C8160E00E94D9008D8160E0D7
:100890000E94D9008E8160E00E94D9008F8160E0C3
:1008A0000E94D9001EC0898160E00E94D9008A811F
:1008B00060E00E94D9008B8160E00E94D9008C81A9
:1008C00060E00E94D9008D8161E00E94D9008E8194
:1008D00060E00E94D9008F8160E00E94D90001C0D1
:1008E0000000000028960FB6F894DEBF0FBECDBF03
:1008F000DF91CF910F910895CF93DF9300D000D077
:10090000CDB7DEB79A8389836B834C838C8181302A
:10091000D1F48B81882F90E0009761F0019709F066
:100920002FC0898161E00E94D9008A8161E00E9424
:10093000D90026C0898160E00E94D9008A8160E0E8
:100940000E94D9001DC08C818823D1F48B81882F0F
:1009500090E0009761F0019709F012C0898160E092
:100960000E94D9008A8160E00E94D90009C0898173
:1009700061E00E94D9008A8161E00E94D9000000F4
:1009800000000F900F900F900F90DF91CF9108957E
:10099000CF93DF9300D000D000D0CDB7DEB769830E
:1009A0007A838B839C834D832E838E81813051F596
:1009B0008D81882F90E00097A1F0019709F04FC03A
:1009C000898161E00E94D9008A8161E00E94D9009A
:1009D0008B8161E00E94D9008C8161E00E94D90086
:1009E0003EC0898160E00E94D9008A8160E00E9457
:1009F000D9008B8160E00E94D9008C8160E00E9468
:100A0000D9002DC08E81882351F58D81882F90E0EB
:100A10000097A1F0019709F022C0898160E00E944F
:100A2000D9008A8160E00E94D9008B8160E00E9439
:100A3000D9008C8160E00E94D90011C0898161E0F9
:100A40000E94D9008A8161E00E94D9008B8161E017
:100A50000E94D9008C8161E00E94D9000000000052
:100A600026960FB6F894DEBF0FBECDBFDF91CF91B3
:100A700008950F93CF93DF93CDB7DEB728970FB6C6
:100A8000F894DEBF0FBECDBF49835A836B837C834E
:100A90008D839E832F83088788858130D1F58F8150
:100AA000882F90E00097E1F0019709F06FC08981ED
:100AB00061E00E94D9008A8161E00E94D9008B81A7
:100AC00061E00E94D9008C8161E00E94D9008D8193
:100AD00061E00E94D9008E8161E00E94D90056C079
:100AE000898160E00E94D9008A8160E00E94D9007B
:100AF0008B8160E00E94D9008C8160E00E94D90067
:100B00008D8160E00E94D9008E8160E00E94D90052
:100B10003DC088858823D1F58F81882F90E000978C
:100B2000E1F0019709F032C0898160E00E94D900AC
:100B30008A8160E00E94D9008B8160E00E94D90028
:100B40008C8160E00E94D9008D8160E00E94D90014
:100B50008E8160E00E94D90019C0898161E00E9405
:100B6000D9008A8161E00E94D9008B8161E00E94F6
:100B7000D9008C8161E00E94D9008D8161E00E94E2
:100B8000D9008E8161E00E94D90000000000289603
:100B90000FB6F894DEBF0FBECDBFDF91CF910F919E
:100BA0000895EF920F93CF93DF93CDB7DEB72A97D7
:100BB0000FB6F894DEBF0FBECDBF29833A834B83B7
:100BC0005C836D837E838F8398870987EA868A8515
:100BD000813009F04AC08985882F90E0009721F183
:100BE000019709F090C0898161E00E94D9008A8153
:100BF00061E00E94D9008B8161E00E94D9008C8164
:100C000061E00E94D9008D8161E00E94D9008E814F
:100C100061E00E94D9008F8161E00E94D90088853F
:100C200061E00E94D9006FC0898160E00E94D90014
:100C30008A8160E00E94D9008B8160E00E94D90027
:100C40008C8160E00E94D9008D8160E00E94D90013
:100C50008E8160E00E94D9008F8160E00E94D900FF
:100C6000888560E00E94D9004EC08A85882309F0FB
:100C70004AC08985882F90E0009721F1019709F0FB
:100C800042C0898160E00E94D9008A8160E00E94B0
:100C9000D9008B8160E00E94D9008C8160E00E94C5
:100CA000D9008D8160E00E94D9008E8160E00E94B1
:100CB000D9008F8160E00E94D900888560E00E94A1
:100CC000D90021C0898161E00E94D9008A8161E058
:100CD0000E94D9008B8161E00E94D9008C8161E083
:100CE0000E94D9008D8161E00E94D9008E8161E06F
:100CF0000E94D9008F8161E00E94D900888561E05F
:100D00000E94D900000000002A960FB6F894DEBFBA
:100D10000FBECDBFDF91CF910F91EF9008950F934C
:100D2000CF93DF93CDB7DEB728970FB6F894DEBF29
:100D30000FBECDBF29833A834B835C836D837E8353
:100D40008F8308878885882F90E0092E000CAA0BD6
:100D5000BB0B40E050E029E030E0841B950B2817E6
:100D6000390708F427C1825C9F4FFC010C94F308FB
:100D7000898161E00E94D9008A8161E00E94D900E6
:100D80008B8161E00E94D9008C8161E00E94D900D2
:100D90008D8161E00E94D9008E8161E00E94D900BE
:100DA0008F8160E00E94D90006C1898160E00E94C5
:100DB000D9008A8161E00E94D9008B8161E00E94A4
:100DC000D9008C8160E00E94D9008D8160E00E9492
:100DD000D9008E8160E00E94D9008F8160E00E947E
:100DE000D900E9C0898161E00E94D9008A8161E06F
:100DF0000E94D9008B8160E00E94D9008C8161E063
:100E00000E94D9008D8161E00E94D9008E8160E04E
:100E10000E94D9008F8161E00E94D900CCC08981F5
:100E200061E00E94D9008A8161E00E94D9008B8133
:100E300061E00E94D9008C8161E00E94D9008D811F
:100E400060E00E94D9008E8160E00E94D9008F810D
:100E500061E00E94D900AFC0898160E00E94D900A2
:100E60008A8161E00E94D9008B8161E00E94D900F3
:100E70008C8160E00E94D9008D8160E00E94D900E1
:100E80008E8161E00E94D9008F8161E00E94D900CB
:100E900092C0898161E00E94D9008A8160E00E944D
:100EA000D9008B8161E00E94D9008C8161E00E94B1
:100EB000D9008D8160E00E94D9008E8161E00E949E
:100EC000D9008F8161E00E94D90075C0898161E0FD
:100ED0000E94D9008A8160E00E94D9008B8161E084
:100EE0000E94D9008C8161E00E94D9008D8161E06F
:100EF0000E94D9008E8161E00E94D9008F8161E05B
:100F00000E94D90058C0898161E00E94D9008A817D
:100F100061E00E94D9008B8161E00E94D9008C8140
:100F200060E00E94D9008D8160E00E94D9008E812E
:100F300060E00E94D9008F8160E00E94D9003BC030
:100F4000898161E00E94D9008A8161E00E94D90014
:100F50008B8161E00E94D9008C8161E00E94D90000
:100F60008D8161E00E94D9008E8161E00E94D900EC
:100F70008F8161E00E94D9001EC0898161E00E94DA
:100F8000D9008A8161E00E94D9008B8161E00E94D2
:100F9000D9008C8161E00E94D9008D8160E00E94BF
:100FA000D9008E8161E00E94D9008F8161E00E94AA
:100FB000D90001C00000000028960FB6F894DEBFEB
:100FC0000FBECDBFDF91CF910F9108951F920F9269
:100FD00000905F000F9211240F932F933F934F9334
:100FE0005F936F937F938F939F93AF93BF93EF9391
:100FF000FF93CF93DF93CDB7DEB780918A00815006
:1010000080938A0080918A00082F20917800309187
:10101000790040917A0050917B0060917C00709142
:101020007D0080917E000E948F0680918A008A3028
:1010300011F410928A000000DF91CF91FF91EF919F
:10104000BF91AF919F918F917F916F915F914F91E0
:101050003F912F910F910F9000925F000F901F9082
:1010600018951F920F9200905F000F9211240F931A
:101070002F933F934F935F936F937F938F939F93A0
:10108000AF93BF93EF93FF93CF93DF93CDB7DEB7CB
:1010900080918A00082F209178003091790040914A
:1010A0007A0050917B0060917C0070917D0080916E
:1010B0007E000E948F0680918A008F5F80938A0055
:1010C00080918A008A3011F410928A000000DF912A
:1010D000CF91FF91EF91BF91AF919F918F917F91B0
:1010E0006F915F914F913F912F910F910F900092CF
:1010F0005F000F901F901895CF93DF93CDB7DEB7A9
:1011000060E08AE10E94670061E086E10E9467007A
:1011100060E086E10E94D9008BE590E02BE530E0AD
:10112000F90120812064FC01208385E590E025E51C
:1011300030E0F90120812360FC0120838FE590E0FD
:101140002FE530E0F90120812068FC0120830000B8
:10115000DF91CF910895CF93DF93CDB7DEB760E0F5
:101160008BE10E94670061E086E10E94670060E019
:1011700086E10E94D9008BE590E02BE530E0F90193
:1011800020812068FC01208385E590E025E530E0A2
:10119000F90120812360FC0120838FE590E02FE599
:1011A00030E0F90120812068FC0120830000DF91FC
:1011B000CF910895CF93DF93CDB7DEB7209178001C
:1011C0003091790040917A0050917B0060917C00D1
:1011D00070917D0080917E000E9418020E947C0820
:1011E0000E94AB08FFCFEE0FFF1F0590F491E02D9A
:0611F0000994F894FFCF02
:1011F6003A003700340031003B0038003500320039
:1012060039003600330030000102030405060709E1
:0A1216000A0B0C0D0E0F101112133D
:00000001FF
